{
  "abi": [
    {
      "inputs": [],
      "name": "countUser",
      "outputs": [
        {
          "internalType": "uint256",
          "name": "",
          "type": "uint256"
        }
      ],
      "stateMutability": "view",
      "type": "function"
    },
    {
      "inputs": [
        {
          "internalType": "string",
          "name": "asset",
          "type": "string"
        },
        {
          "internalType": "address",
          "name": "user",
          "type": "address"
        }
      ],
      "name": "getBalance",
      "outputs": [
        {
          "internalType": "uint256",
          "name": "",
          "type": "uint256"
        }
      ],
      "stateMutability": "nonpayable",
      "type": "function"
    },
    {
      "inputs": [],
      "name": "initUserAccount",
      "outputs": [],
      "stateMutability": "nonpayable",
      "type": "function"
    },
    {
      "inputs": [
        {
          "internalType": "address",
          "name": "_noUSDC",
          "type": "address"
        },
        {
          "internalType": "address",
          "name": "_noETH",
          "type": "address"
        },
        {
          "internalType": "address",
          "name": "_apETH",
          "type": "address"
        },
        {
          "internalType": "address",
          "name": "_communicator",
          "type": "address"
        }
      ],
      "name": "initialize",
      "outputs": [],
      "stateMutability": "nonpayable",
      "type": "function"
    },
    {
      "inputs": [
        {
          "internalType": "uint256",
          "name": "amount",
          "type": "uint256"
        }
      ],
      "name": "investAPWineETH",
      "outputs": [],
      "stateMutability": "nonpayable",
      "type": "function"
    },
    {
      "inputs": [
        {
          "internalType": "uint256",
          "name": "",
          "type": "uint256"
        },
        {
          "internalType": "address",
          "name": "",
          "type": "address"
        }
      ],
      "name": "investedAPWine",
      "outputs": [
        {
          "internalType": "uint256",
          "name": "",
          "type": "uint256"
        }
      ],
      "stateMutability": "view",
      "type": "function"
    },
    {
      "inputs": [
        {
          "internalType": "address",
          "name": "",
          "type": "address"
        }
      ],
      "name": "usersId",
      "outputs": [
        {
          "internalType": "uint256",
          "name": "",
          "type": "uint256"
        }
      ],
      "stateMutability": "view",
      "type": "function"
    }
  ],
  "bytecode": {
    "object": "0x608060405234801561001057600080fd5b50610801806100206000396000f3fe608060405234801561001057600080fd5b506004361061007d5760003560e01c8063a53996071161005b578063a5399607146100c5578063a66e7797146100e5578063d01851d6146100ed578063f8c8765e1461011857600080fd5b80636fafa08a146100825780637ced9d881461009d57806389f4b317146100b2575b600080fd5b61008b60025481565b60405190815260200160405180910390f35b6100b06100ab3660046105e5565b610176565b005b61008b6100c0366004610630565b610375565b61008b6100d33660046106f2565b60006020819052908152604090205481565b6100b061046f565b61008b6100fb366004610714565b600160209081526000928352604080842090915290825290205481565b6100b0610126366004610737565b600380546001600160a01b039586166001600160a01b0319918216179091556004805494861694821694909417909355600580549285169284169290921790915560068054919093169116179055565b600480546040516370a0823160e01b8152339281019290925282916001600160a01b03909116906370a0823190602401602060405180830381865afa1580156101c3573d6000803e3d6000fd5b505050506040513d601f19601f820116820180604052508101906101e7919061078b565b101561022c5760405162461bcd60e51b815260206004820152601060248201526f6e6f7420656e6f7567682066756e647360801b604482015260640160405180910390fd5b60048054604051632770a7eb60e21b81523392810192909252602482018390526001600160a01b031690639dc29fac90604401600060405180830381600087803b15801561027957600080fd5b505af115801561028d573d6000803e3d6000fd5b50506005546040516340c10f1960e01b8152336004820152602481018590526001600160a01b0390911692506340c10f199150604401600060405180830381600087803b1580156102dd57600080fd5b505af11580156102f1573d6000803e3d6000fd5b5050600680546040805163ccc95e0360e01b81526004810191909152604481019290925265415077696e6560d01b6064830152602482018590526001600160a01b0316925063ccc95e039150608401600060405180830381600087803b15801561035a57600080fd5b505af115801561036e573d6000803e3d6000fd5b5050505050565b60408051808201909152600381526208aa8960eb1b6020918201528251908301206000907f55514145c7ef4e1948f87e0eb4d28d3e34763f4d4cdf3bc449800860a9d0a00c01610435576003546040516370a0823160e01b81526001600160a01b038481166004830152909116906370a08231906024015b602060405180830381865afa15801561040a573d6000803e3d6000fd5b505050506040513d601f19601f8201168201806040525081019061042e919061078b565b9050610469565b600480546040516370a0823160e01b81526001600160a01b03858116938201939093529116906370a08231906024016103ed565b92915050565b61047830610579565b6002805433600090815260208190526040812082905590919061049a836107a4565b90915550506003546040516340c10f1960e01b815233600482015268056bc75e2d6310000060248201526001600160a01b03909116906340c10f1990604401600060405180830381600087803b1580156104f357600080fd5b505af1158015610507573d6000803e3d6000fd5b5050600480546040516340c10f1960e01b81523392810192909252671bc16d674ec8000060248301526001600160a01b031692506340c10f199150604401600060405180830381600087803b15801561055f57600080fd5b505af1158015610573573d6000803e3d6000fd5b50505050565b6040516001600160a01b03821660248201526105c19060440160408051601f198184030181529190526020810180516001600160e01b031663161765e160e11b1790526105c4565b50565b80516a636f6e736f6c652e6c6f67602083016000808483855afa5050505050565b6000602082840312156105f757600080fd5b5035919050565b634e487b7160e01b600052604160045260246000fd5b80356001600160a01b038116811461062b57600080fd5b919050565b6000806040838503121561064357600080fd5b823567ffffffffffffffff8082111561065b57600080fd5b818501915085601f83011261066f57600080fd5b813581811115610681576106816105fe565b604051601f8201601f19908116603f011681019083821181831017156106a9576106a96105fe565b816040528281528860208487010111156106c257600080fd5b8260208601602083013760006020848301015280965050505050506106e960208401610614565b90509250929050565b60006020828403121561070457600080fd5b61070d82610614565b9392505050565b6000806040838503121561072757600080fd5b823591506106e960208401610614565b6000806000806080858703121561074d57600080fd5b61075685610614565b935061076460208601610614565b925061077260408601610614565b915061078060608601610614565b905092959194509250565b60006020828403121561079d57600080fd5b5051919050565b6000600182016107c457634e487b7160e01b600052601160045260246000fd5b506001019056fea264697066735822122032a9b14778ab70309551bc66dba35b4e8efa7012f8ef159f26146192061847a164736f6c634300080f0033",
    "linkReferences": {}
  },
  "methodIdentifiers": {
    "countUser()": "6fafa08a",
    "getBalance(string,address)": "89f4b317",
    "initUserAccount()": "a66e7797",
    "initialize(address,address,address,address)": "f8c8765e",
    "investAPWineETH(uint256)": "7ced9d88",
    "investedAPWine(uint256,address)": "d01851d6",
    "usersId(address)": "a5399607"
  },
  "id": 14
}